:1037C30055534220444542554700555342205245E4
:1037D30041440010C4EA611A03530069006C006994
:1037E3000063006F006E0020004C006100620073F4
:1037F30000100355005300420020004100500049CF
:10380300000A0346003300340030000F800100013A
:1039A3000127000130000135000137000139000112
:1039B3003600012B00022C0000043100000001013D
:0C39C30028AA012955012AFF022E00004D
:10269700752E00752F021234C920B603022786E56E
:1026A7002E6003022752E52F14604C147003022793
:1026B7003A240260030227527F007EF812000312B9
:1026C7003B747FE07E07120003123B747F1F7E007E
:1026D700120003123B7474FFFFFE120003123B74D7
:1026E700E4FFFE120003123B74122CC5123B741256
:1026F7003813123B74805A7F007EF8120003123A97
:10270700737FE07E07120003123A737F1F7E001269
:102717000003123A7374FFFFFE120003123A73E4C8
:10272700FFFE120003123A73122CC5123A731238C5
:1027370013801B122CC5123A73E4FFFE120003121A
:102747003A7374FFFFFE1200038003122CC5123A7E
:10275700737D087F047E001229FD7F807E0C123A6C
:1027670077123B997F0A7E00123A77E4F538AF3843
:10277700122934123B740538E538C3940140EF221F
:043A73007FD07E077B
:103A7700E4FDFCC3ED9FEC9E5014E4FBFA0BBB0086
:0E3A8700010AEBF44A70F60DBD00010C80E55B
:013A9500220E
:04385C008E498F4AB8
:10386000E4F54BF54C30B720E4FFFEC3EF954AEE8C
:103870009549501EE4FDFC0DBD00010CEDF44C70AB
:10388000F60FBF00010E80E3123B747F147E00121E
:103890003A77054CE54C7002054BC39464E54B94B4
:0338A0000040C223
:0138A3002202
:103B740030B6051206A780F87F0A7E00123A773025
:033B8400B6FD2269
:1006A700780D7C007D007BFF7A3879127E007F0110
:1006B700120D1EE5307003020872750901E5092560
:1006C700E025E02458F582E43402F583E07029E55B
:1006D7000925E025E02459F582E43402F583E0FE9C
:1006E700E50925E025E0245AF582E43402F583E0A4
:1006F700FDEDFF122858803BE50925E025E0245849
:10070700F582E43402F583E064017027E50925E00A
:1007170025E02459F582E43402F583E0FEE5092556
:10072700E025E0245AF582E43402F583E0FDEDFF8D
:100737001223740509E509C39410408100000000E5
:1007470000000000000000000000000000000000A2
:100757007BFF7A3779C3E4F513F514F515F51674AD
:10076700FFF517F518E4FDFC122EAF90025BE020B1
:10077700E003020858750901E50925E025E024583A
:10078700F582E43402F583E07054E50925E025E0BD
:100797002459F582E43402F583E0FEE50925E025D6
:1007A700E0245AF582E43402F583E0FDEDFFE50924
:1007B70025E025E0245BF582E43402F583E075F05B
:1007C70024A4FDACF0E50975F011A4FBAAF075149B
:1007D700077515E0E4F516F517122F4A8067E50946
:1007E70025E025E02458F582E43402F583E064012E
:1007F7007053E50925E025E02459F582E43402F534
:1008070083E0FEE50925E025E0245AF582E4340279
:10081700F583E0FDEDFFE50925E025E0245BF582A2
:10082700E43402F583E075F024A4FDACF0E5097526
:10083700F011A4FBAAF075140075151F74FFF516C7
:10084700F517122F4A0509E509C39410500302074B
:100857007F00000000000000000000000000000012
:100867000000000000E4F5300206BAE53670030226
:100877000931E4F509E509C394404003020920C2A0
:10088700B0D2B174582509F582E43402F583E0FF4C
:1008970074592509F582E43402F583E0FD123BB86B
:1008A700D2B074582509F582E43402F583E0FF05D8
:1008B7002DE52DAC2C7002052C142400F582740054
:1008C7003CF583EFF074592509F582E43402F5838A
:1008D700E0FF052DE52DAC2C7002052C142400F546
:1008E7008274003CF583EFF0E4B52D26E52CB402C5
:1008F70021123B877831120F06123206900000E56D
:100907002BF07F007E007D007C00123206E4F52C80
:10091700F52D0509050902087CE4F536FB7A00790F
:100927000D7D01FC121E3B020872E5277003020AC7
:100937002C90025BE070030209E8750904E509C31E
:1009470094244003020A1BC2B0D2B174582509F59A
:1009570082E43402F583E0FF74592509F582E43413
:1009670002F583E0FD123BB8D2B074582509F58231
:10097700E43402F583E0FF052DE52DAC2C7002056C
:100987002C142400F58274003CF583EFF07459258C
:1009970009F582E43402F583E0FF052DE52DAC2C43
:1009A7007002052C142400F58274003CF583EFF0E7
:1009B700E4B52D26E52CB40221123B877831120FBE
:1009C70006123206900000E52BF07F007E007D00C6
:1009D7007C00123206E4F52CF52D050905090209FC
:1009E70044750904E509C394245029C2B0D2B174EF
:1009F700582509F582E43402F583E0FF7459250987
:100A0700F582E43402F583E0FD123BB8D2B0050964
:100A1700050980D0E4F527FB7A00790D7D01FC12EA
:100A27001E3B020931E5397003020ADD750904E549
:100A370009C394244003020ACC74582509F582E4BB
:100A47003402F583E0702174592509F582E43402F4
:100A5700F583E0FE745A2509F582E43402F583E054
:100A6700FDEDFF122858805474582509F582E434A7
:100A770002F583E0B4012174592509F582E43402B3
:100A8700F583E0FE745A2509F582E43402F583E024
:100A9700FDEDFF122374802474582509F582E43490
:100AA70002F583E0641070140000000000000000ED
:100AB7000000000000000000000000007404250989
:100AC700F509020A36E4F539FB7A00790D7D01FC58
:100AD700121E3B020A2CE5357003020C10E4F509DF
:100AE70074002509F582E43402F583E4F00509E58D
:100AF70009B418EC90025FE025E0F50C90025DE088
:100B0700FEA3E0FDEEF50AEDF50B90025CE0640153
:100B17007034AF0BAE0A122858E4F509E509C395FE
:100B27000C5023123A9674002509F582E43402F535
:100B370083E4F074012509F582E43402F583EFF0CC
:100B47000509050980D6E4F5357B017A027900E5C8
:100B57000CFD7C00121E3B7F647E00123A777BFF00
:100B67007A3779CDE4F513F514F515F51674FFF515
:100B770017F518E4FDFC122EAF90025BE020E003AE
:100B8700020ADD900260E075F024A4FDACF0751454
:100B9700077515E0E4F516F5177B11FAAF0BAE0AEA
:100BA700122F4AE4F509E509C3950C4003020ADD53
:100BB700900260E075F024A4FDACF0C004C005E528
:100BC70009C3132402FFE433FE7C007D11120D8A52
:100BD700AA06AB0774002509F582E43402F583E021
:100BE700FE74012509F582E43402F583E0FDEDFF8B
:100BF70075140075151F74FFF516F517D005D00489
:100C0700122F4A05090509809DE5376039E4F50982
:100C170074182509F582E43402F583E4F00509E543
:100C270009B440EC9002187401F0A37440F0E4A3F7
:100C3700F0A374F0F0E4F5377B017A0279187D4070
:060C4700FC121E3B80C3FD
:010C4D002284
:1038EB0053D9BF75B283E4F5B943B980FF0FBFFF5E
:1038FB00FC43B9C0E5B930E5FBE4F5A943EF02752C
:10390B00F1FF75A4FF75A5FF75F2FF75A6FF75AEE8
:10391B00FF75F4FF43A717C286C287D2B5D2B34354
:05392B00E10243E2404F
:013930002274
:103B8700E526700D123B997F0A7E00123A7775265B
:013B9700012C
:013B9800220A
:1034C9001238EB12396B9037D6E493FE740193FFEF
:1034D9009037D8E493FC740193FD90020774FFF0D0
:1034E900A37437F0A374F4F0A374FFF0A37438F055
:1034F900A37404F090380EE49390020DF090380F05
:10350900E49390020EF0903810E493FB74019390C9
:10351900020FCBF0A3EBF07BFF7A3779DA12163F73
:0C352900123B3175A17075F80F022FE401
:033BE4000239D4CF
:03008B0002216CE3
:10216C00C0E0C0F0C083C082C0D075D000C000C039
:0D217C0001C002C003C004C005C006C007BA
:10218900123BAA8F08E50830E27C7B017A02795874
:102199007D40122C16900258E0FFB5280FA3E0B538
:1021A900290AA3E0B52A05753001805AEFB52A112D
:1021B900900259E0B5290AA3E0B5280575350180D3
:1021C90045900258E0B5290FA3E0B5280AA3E0B568
:1021D9002A05753701802F900258E0FFB5280FA313
:1021E900E0B52A0AA3E0B529057527018018EFB5DE
:1021F9002A11900259E0B5280AA3E0B529057539D5
:10220900018003753601E50830E703123BE4E50870
:1022190030E6031238EBE50830E41A15531553A8D4
:1022290053760108763F7A007B007C007DEF7E00C3
:102239007F00122E28E50830E51C052B1553155390
:10224900A853760108763F7A007B007C007DEF7EFB
:06225900007F00122E2898
:10225F00D007D006D005D004D003D002D001D000D3
:0B226F00D0D0D082D083D0F0D0E0327D
:0C3B4A007FFF123B567FFF123B567FFFAF
:093B56008FA330FFFDC2FFAFA3F5
:013B5F002243
:0A3BD10075A3FF30FFFDC2FFAFA394
:013BDB0022C7
:0235FE00AE0716
:10360000E4FB123B4A123B4AC2FAEE4440FF123B33
:1036100056AF1EAE1DAD1CAC1B7818120EE0123B4F
:1036200056AF1EAE1DAD1CAC1B7810120EE0123B47
:1036300056AF1EAE1DAD1CAC1B7808120EE0123B3F
:1036400056AF1E123B567F95123B567FFF123B56DC
:0E365000BFFF09AE030BEED3946440EFD2FA35
:01365E002249
:102AB100E4FEFA75A90375A23BE4FD7FFF123B56C4
:102AC1000DBD64F7E4F51EF51DF51CF51BFF123570
:102AD100FEAE070AEAD3940A5003BE01DCE4FAE42D
:102AE100F51EF51DF51CF51B7F371235FEAE070AE5
:102AF100EAD3946440037F0122BE01E3E4FAF51EA8
:102B0100F51DF51CF51B7F291235FEAE070AEAD328
:102B1100946440037F0122EE70C5EE601FE4FAE485
:102B2100F51EF51DF51CF51B7F011235FEAE070ADA
:102B3100EAD3946440037F0122EE70E3E4F51EF5CD
:102B41001DF51CF51B7F3B1235FEAE07E4F51E7526
:102B51001D02F51CF51B7F101235FE75A201E4F56F
:022B6100A9FFCA
:012B6300224F
:083206008F118E108D0F8C0E4C
:10320E00E4FA75A903AF11AE10AD0FAC0E7809122A
:10321E000EF38F1E8E1D8D1C8C1B7F181235FEAE6D
:10322E00070AEAD3940A40037F0122EE70D7C2FA4E
:10323E007FFF123B567FFE123B56FDFC74002DF5B0
:10324E008274003CF583E0FF123B560DBD00010C6D
:10325E00E4B505E8ECB402E4123B4AAE07EE541FA7
:10326E0064056003D2FA227FFF123B56EF60F8D25C
:05327E00FAE4F5A9FFD0
:013283002228
:083535008F198E188D178C16FA
:10353D00E4FA75A903AF19AE18AD17AC16780912D8
:10354D000EF38F1E8E1D8D1C8C1B7F111235FE0AE6
:10355D00EAD3940A40037F0122EF70D9C2FA123BDD
:10356D00D1BFFEFAE4FDFC123BD174002DF582743F
:10357D00003CF583EFF00DBD00010CE4B505E8EC62
:0C358D00B402E4123B4FD2FAE4F5A9FFAF
:01359900220F
:103B9900122AB1EF600A0516E516D3940340F12203
:013BA90022F9
:10008E00524541442049442000F800F80007E0079B
:10009E00E0001F001FFFFFFFFF0000001824424278
:1000AE00424242424224180000000000107010101C
:1000BE001010101010107C00000000003C42424254
:1000CE000404081020427E00000000003C4242045E
:1000DE00180402024244380000000000040C1424EC
:1000EE002444447E04041E00000000007E40404074
:1000FE005864020242443800000000001C244040B4
:10010E005864424242241800000000007E44440815
:10011E000810101010101000000000003C42424267
:10012E002418244242423C0000000000182442429F
:10013E0042261A020224380000000000101018286F
:10014E0028243C444242E70000000000F8444444A6
:10015E00784442424244F800000000003E42428091
:10016E00808080804244380000000000F844424203
:10017E00424242424244F80000000000FC4248481D
:10018E00784848404242FC0000000000FC424848CB
:10019E00784848404040E000000000003C44448065
:1001AE0080808E844444380000000000E7424242C2
:1001BE00427E42424242E700000000007C101010D6
:1001CE001010101010107C00000000003E080808EF
:1001DE000808080808080888F0000000EE44485097
:1001EE00705048484444EE0000000000E04040409B
:1001FE00404040404042FE0000000000EE6C6C6C3F
:10020E006C5454545454D60000000000C76262521D
:10021E00524A4A4A4646E2000000000038448282B2
:10022E00828282828244380000000000FC424242F8
:10023E00427C40404040E000000000003844828292
:10024E00828282B2CA4C380600000000FC42424252
:10025E007C4848444442E300000000003E424240D5
:10026E002018040242427C0000000000FE92101092
:10027E00101010101010380000000000E74242422B
:10028E004242424242423C0000000000E7424244E9
:10029E00242428281810100000000000D6929292F4
:1002AE0092AAAA6C4444440000000000E7422424B1
:1002BE00181818242442E70000000000EE444428D9
:1002CE002810101010103800000000007E84040862
:1002DE00081020204242FC0000001E1010101010CA
:1002EE00101010101010101E0000004040202010A2
:1002FE001010080804040402020078080808080810
:10030E00080808080808087800001C2200000000F1
:10031E0000000000000000000000000000000000CF
:10032E000000000000000000FF0060100000000050
:10033E0000000000000000000000000000000000AF
:10034E003C421E2242423F0000000000C04040409E
:10035E005864424242645800000000000000000051
:10036E001C22404040221C00000000000602020237
:10037E001E22424242261B00000000000000000028
:10038E003C427E4040423C00000000000F11101025
:10039E007E10101010107C00000000000000000005
:1003AE003E444438403C42423C000000C040404085
:1003BE005C6242424242E700000000003030000022
:1003CE007010101010107C00000000000C0C0000CB
:1003DE001C0404040404044478000000C04040409F
:1003EE004E4850684844EE00000000007010101097
:1003FE001010101010107C00000000000000000013
:10040E00FE4949494949ED00000000000000000086
:10041E00DC6242424242E7000000000000000000A1
:10042E003C42424242423C000000000000000000FC
:10043E00D864424242447840E000000000000000D0
:10044E001E22424242221E0207000000000000004F
:10045E00EE3220202020F8000000000000000000F6
:10046E003E42403C02427C000000000000001010A2
:10047E007C10101010100C00000000000000000096
:10048E00C642424242463B0000000000000000000F
:10049E00E742242428101000000000000000000095
:1004AE00D79292AAAA444400000000000000000067
:1004BE006E241818182476000000000000000000BA
:1004CE00E742242428181010E0000000000000006D
:1004DE007E44081010227E0000000304040404046D
:1004EE0008040404040404030008080808080808A3
:1004FE0008080808080808080800601010101010F6
:10050E00081010101010106000304C430000000056
:10051E0000000000000000000000000000000000CD
:10052E00000000000000000000000000101010107D
:10053E001010100000181800000012362448000099
:10054E00000000000000000000000000242424FE33
:10055E00484848FE4848480000000010385454509F
:10056E0030181414545438101000000044A4A8A8D5
:10057E00A8541A2A2A2A440000000000304848488D
:10058E00506EA494888976000000606020C0000040
:10059E000000000000000000000002040808101017
:1005AE001010101008080402000040201010080857
:1005BE00080808081010204000000000001010D697
:1005CE003838D61010000000000000000010101087
:1005DE0010FE1010101000000000000000000000BF
:1005EE000000000000606020C0000000000000005D
:1005FE00007F00000000000000000000000000006E
:10060E00000000000060600000000001020204040F
:10061E0008081010202040400000000000000018C4
:10062E001800000000181800000000000000000074
:10063E00100000000000101020000000020408103E
:10064E00204020100804020000000000000000FE00
:10065E00000000FE00000000000000004020100816
:10066E000402040810204000000000003C424262D8
:10067E0002040808001818000000000038445AAAA6
:10068E00AAAAAAB44244380000FFFFFFFFFFFFFFF3
:09069E00FFFFFFFFFFFFFFFFFF5C
:0439CF00025104C5D8
:102787007F367E00122858E4FF1223747F3A1228FE
:10279700587F051223747FB21228587F0C122374B6
:1027A700122374FF1223747F331223741223747F4E
:1027B700B71228587F351223747FBB1228587F2001
:1027C7001223747FC01228587F2C1223747FC212E1
:1027D70028587F011223747FC31228587F0B1223B6
:1027E700747FC41228587F201223747FC61228587A
:1027F7007F0F1223747FD01228587FA41223747F6F
:10280700A11223747FE01228587FD01223747F030C
:102817001223747F091223747F0E1223747F1112FF
:1028270023747F3D1223747F471223747F5512232D
:10283700747F531223747F1A1223747F1612237422
:102847007F141223747F1F1223747F221223747F35
:01285700E19F
:0F285800C2B0D296C2B18FA0C297D297D2B0228F
:10227A007FFE7E001228587FEF1228587F361228D8
:10228A00587F481223747F3A1228587F0512237404
:10229A007FAD1228587F331223747FAF1228587FDC
:1022AA00551223747FAE1228587F2B1223747FA4F1
:1022BA001228587F441223741223747FA5122858B7
:1022CA007F421223741223747FAA1228587F88121D
:1022DA0023741223747FAE1228587F2B1223747F23
:1022EA00E81228587F111223747F0B1223747FE39C
:1022FA001228587F011223747F101223747FFF1251
:10230A0028587F611223747FAC122858E4FF1223E5
:10231A00747FAF1228587F671223747FA612285839
:10232A007F2A1223741223747FA71228587F2B1234
:10233A0023741223747FA81228587F181223741248
:10234A0023747FA91228587F2A1223741223741225
:10235A002858FF1223741223741223747FEF122356
:0A236A00747F2B122858FF12237411
:0F237400C2B0D296D2B18FA0C297D297D2B02268
:0D3BB8008FA0C297D2978DA0C297D29722FE
:103B1800AD07AC06C2B0D296D2B18CA0C297D297EC
:093B28008DA0C297D297D2B02201
:102FE400D2857FC87E00123A77C2857F207E031285
:102FF4003A77D2857F207E03123A77E5528551F0E5
:10300400120F63304B0457304E045930570461306B
:103014005A0463305104BB305404BD305D04C530E0
:103024006004C73063083F30660841306F08493098
:1030340072084B306908A3306C08A5307508AD30B0
:103044007808AF0000307B0232F902310802248B89
:10305400021F4C0214EF020000021AF00218A4022C
:10306400336E02318702259102205C0219CC0217CB
:0830740076022383121D2922BC
:102E0E0075A90315531553A853760108763F7A001A
:0A2E1E007B007C007DEF7E007F004A
:102E280015531553A853A60208A60315531553A8FE
:102E380053A60408A60515531553A853A60608A6B5
:102E4800077F2A7E00122858A953E7FF122374A887
:102E58005308E6FF122374A8530808A900E7FF12D5
:102E68002374A853080808E6FF1223747F2B12283E
:102E780058E5532404F9E7FF122374E5532404F8B2
:102E880008E6FF122374E5532406F9E7FF122374BA
:102E9800E5532406F808E6FF1223747F2C122858FD
:072EA800E5532408F5532255
:040003008E098F0AC9
:10000700122E1175A903C2B0D2B1D296E4FDE4FB5A
:10001700FAE509F5A0C297D297850AA0C297D297A9
:100027000BBB00010AEB64F04A70E60DBD00010C42
:0B003700BC01DBBD40D8E4F5A9D2B04D
:01004200229B
:102CC500780D7C007D007BFF7A0079977E007F1070
:102CD500120D1E122E0EC2B0D296D2B1E4FDE4F54D
:102CE50009F50AE4F50BF50CED25E0240DF8E6FAF7
:102CF50008E6FBEAF5A0C297D2978BA0C297D297B8
:102D0500050CE50C7002050B64F0450B70DA050A3D
:102D1500E50A700205096428450970C70DBD000163
:102D25000CED64084C70B7E4F509F50AC3E50994A0
:102D350000502CE4F50BF50CE51BF5A0C297D297D6
:102D4500851CA0C297D297050CE50C7002050B6493
:102D5500F0450B70E3050AE50A7002050980CDE42C
:042D6500F5A9D2B04A
:012D69002247
:10381300122E0EE4FDE4FBFAED4C6014ED643F70F0
:1038230003EC6401600AEB4A6006EB64EF4A70063E
:103833007FFF7E008003E4FFFE1223741223740BC8
:10384300BB00010AEB64F04A70CE0DBD00010CBC55
:0838530001C3BD40C0E4F5A96A
:01385B00224A
:022934008F0909
:10293600123B87122E0EC2B0D2B1E475152C751457
:1029460001F513F512AF09FDFEAB15AA14A913A8DC
:1029560012120DB2EF2401F50DE43EF50CE43DF53F
:102966000BE43CF50AE5092401FFE433FEE4FCFD33
:10297600AB15AA14A913A812120DB2EF2401F51172
:10298600E43EF510E43DF50FE43CF50EAF11AE1054
:10299600AD0FAC0EAB0DAA0CA90BA80AC3120ECF35
:1029A600504FAF0DAE0CAD0BAC0A123535E4FBFA49
:1029B600C3EA9402502474002BF58274003AF5831E
:1029C600E0FF74012BF58274003AF583E0FD123BBB
:1029D600B874022BFBE43AFA80D6E50D2401F50D16
:1029E600E4350CF50CE4350BF50BE4350AF50A80F5
:0629F6009BD2B0E4F5A93C
:0129FC0022B8
:10365F00EFC3942050047F5F8050EFC39420400C41
:10366F00EFD3942F5006EF2428FF803EEFC3943002
:10367F00400CEFD39439500674D02FFF802CEFC33A
:10368F00943A400CEFD394405006EF241EFF801A5B
:10369F00EFC39441400CEFD3947E5006EF24C9FF43
:0B36AF008008EFD3947E40027F5F2272
:102D6A00FDE43510FC85141E85151F851620851770
:052D7A0021AB13AA12B9
:062D7F008F19AF05AE0440
:102D8500EB240FFDE43A15531553A853F608A60591
:102D9500EF2407FDE43EFC122E28AF197E00D3EF89
:102DA500945FEE940040027F5FEFC4F8540FC8684B
:102DB500FFEEC454F048FE7523FF7524007525A762
:102DC500EF2525F525EE3524F524E4F522AB23057D
:102DD50025E525AA247002052414F9120D44FBE407
:102DE500FAEBA802088002C333D8FC30E706AF1F10
:102DF500AE1E8004AF21AE20123B180ABA08E205C8
:082E050022E522C3941040C530
:012E0D0022A2
:102EAF008B0E8A0F89108C118D12AB0EAA0FA910E1
:102EBF00120D447003D38001C34066AB0E0510E5BD
:102ECF0010AA0F7002050F14F9120D44FF12365F8E
:102EDF0085151E85161F851720851821AB14AA137B
:102EEF00AD12AC11122D7FD3E51294E7E5119400CA
:102EFF004012E4F511F51274102514F514E435138E
:102F0F00F513800B74082512F512E43511F511D362
:102F1F00E514942FE51394014090E4F513F5148014
:102F2F008915531553A853760108763F7A007B0015
:0B2F3F007C007DEF7E007F00022E284A
:102F4A008E0E8F0F8C108D118A128B13D3E511946C
:102F5A00CFE510940040067510007511CFD3E51324
:102F6A00942FE5129401400CE51324EFF513E512B2
:102F7A0034FFF512E50EC4540FFF85141E85151F84
:102F8A00851620851721AB13AA12AD11AC10122D8C
:102F9A007FE50E540FFFE5112408122D6AE50EC4D1
:102FAA00F854F0C8E50FC4540F48540FFFE5112434
:102FBA0010122D6AE50F540FFFE5112418122D6A1D
:102FCA0015531553A853760108763F7A007B007C87
:0A2FDA00007DEF7E007F00022E282C
:103A9600E4F5A0C2B0D2B1D297C296F5AED287D223
:103AA60096AFA0EFFEADA0EDFFC28775AEFFD29632
:023AB600D2B08C
:013AB80022EB
:0629FD008E098F0A8D0B0C
:102A0300122858E50BD394144003750B14E4F50C0A
:102A1300E50CC3950B5019123A96E50C25E02400FA
:102A2300F582E43402F583EEF0A3EFF0050C80E0C9
:102A33007BFF7A00798EE4F513F514F515F516741A
:102A4300FFF517F518E4FDFC122EAF751407751585
:102A5300E0E4F516F5177B11FAFDFCAF0AAE091297
:102A63002F4AE4F50CE50CC3950B5041E50C25E02A
:102A73002400F582E43402F583E0F8A3E0F58288CC
:102A830083E50C2402FFE433FE7C007D11120D8AE2
:102A9300AA06AB0775140075151F74FFF516F51715
:0D2AA300AF82AE83E4FD122F4A050C80B80F
:012AB0002203
:0C0046008E448F458C468D478B828A8348
:10005200E4F54815531553A853760108763F7E0000
:10006200E5472548FBEE3546FA7C007DEFAE44AF0E
:1000720045122E28AF82AE83123B18123B18054858
:07008200E548C3940340CCE4
:010089002254
:0C359A008E3A8F3B8C3C8D3D8A3E8B3F6F
:1035A60015531553A853A64008A641AA3EAB3FACF7
:1035B6003CAD3DAE3AAF3B122E28AB3FAA3EE541AD
:1035C6002401FFE43540FEC3EB9FEA9E5029853B6C
:1035D60082853A83E53D2401FFE4353CFEC3E5825E
:1035E6009FE5839E500AAF43AE42123B18A380E488
:0735F6000BBB00010A80C7B6
:0135FD0022AB
:043284008E4D8F4E8E
:10328800754F0075500FC3E550943FE54F940150BA
:1032980027854F40855041854D42854E43AB50AA06
:1032A8004F7DEF7C00E4FFFE12359A74102550F52F
:1032B80050E4354FF54F80CE754F0075500FC3E57C
:1032C8005094EFE54F9400502775400175413F85B4
:1032D8004D42854E43E4FBFAAD50AC4FAF50AE4F74
:1032E80012359A74102550F550E4354FF54F80CEBD
:0132F80022B3
:1032F900D2857F017E00123A77C2857F0A7E00124D
:103309003A77D2857F787E00123A777F117E001254
:1033190028587F78123A771227877FD01223747F33
:10332900021223747F081223747F0D1223747F12F3
:103339001223747F2C1223747F431223747F551236
:1033490023747F531223747F1E1223747F1B12234D
:10335900747F191223747F201223747F221223741D
:053369007F2902285835
:10310800D2857F017E00123A77C2857F0A7E00123F
:103118003A77D2857F787E00123A777F117E001247
:1031280028587F78123A771227877FD01223747F26
:10313800021223747F081223747F0D1223747F12E6
:103148001223747F2C1223747F431223747F551229
:1031580023747F531223747F1E1223747F1B122340
:10316800747F191223747F201223747F2212237410
:0F3178007FE71228587F081223747F29022858F6
:10248B00D2857F787E00123A77C2857F647E0012F8
:10249B003A77D2857F787E00123A7712227A0F1222
:1024AB0023747F3F1223747F2C1228587FF012283D
:1024BB00587F021223741F1223741F1223747F047C
:1024CB001223747F0B1223747F101223747FF1126B
:1024DB0028587F011223741F1223741223747F1147
:1024EB001223747F201223747F181223747FF2122D
:1024FB0028587F111223747F0B1223747F331223FE
:10250B00747F041223741223747F421223747FF39B
:10251B001228587F191223747F0D1223747F5612C1
:10252B0023747F031223741F1223747F611223748D
:10253B007FF41228587F0B1223747F161223741FFB
:10254B001223747F111223741223747F0F122374BE
:10255B007FF51228587F071223747F161223741FDE
:10256B001223747F2A1223741223747F0F12237485
:10257B007F111228587F78123A777F297E00122814
:06258B00587F2C022858C5
:101F4C00D2857F787E00123A77C2857F647E00123C
:101F5C003A77D2857F787E00123A7712227A0F1266
:101F6C0023747F3F1223747F2C1228587FF0122881
:101F7C00587F021223741F1223741F1223747F04C0
:101F8C001223747F0B1223747F101223747FF112AF
:101F9C0028587F011223741F1223741223747F118B
:101FAC001223747F201223747F181223747FF21271
:101FBC0028587F111223747F0B1223747F33122342
:101FCC00747F041223741223747F421223747FF3E0
:101FDC001228587F191223747F0D1223747F561206
:101FEC0023747F031223741F1223747F61122374D2
:101FFC007FF41228587F0B1223747F161223741F40
:10200C001223747F111223741223747F0F12237402
:10201C007FF51228587F071223747F161223741F22
:10202C001223747F2A1223741223747F0F122374C9
:10203C007FE91228587F081223747F111228587FC9
:10204C0078123A777F297E001228587F2C02285864
:1014EF00D2857F017E00123A77C2857F0A7E001275
:1014FF003A77D2857F787E00123A777F117E00127D
:10150F0028587F78123A777FB27E001228587F0CC6
:10151F00122374122374E4FF1223747F3312237483
:10152F001223747FB71228587F351223747FBB1292
:10153F0028587F301223747FC01228587F2C122313
:10154F00747FC21228587F011223747FC312285848
:10155F007F1A1223747FC41228587F201223747F9E
:10156F00C61228587F0F1223747FCA1228587F0F74
:10157F001223747FC81228587F081223747F5512C4
:10158F002858FF1223747FD01228587FA412237477
:10159F007FA11223747F3A1228587F551223747F2C
:1015AF00E01228587FF0122374FF1223747F0A125F
:1015BF0023747F101223747F121223747F1B122344
:1015CF00747F391223747F441223747F471223745C
:1015DF007F281223747F121223747F101223747FBB
:1015EF00161223747F1B1228537FF0122374FF12DD
:1015FF0023747F0A1223747F101223740F12237423
:10160F007F1A1223747F3B1223747F341223747F4B
:10161F004E1223747F3A1223747F171223741F12F2
:10162F0023747F211223740F1223747F29022858E9
:101AF000D2857F017E00123A77C2857F0A7E00126E
:101B00003A77D2857F787E00123A77D2857F787EC9
:101B100000123A77C2857F647E00123A77D2857FC1
:101B2000787E00123A7712227A0F1223747F3F12C6
:101B300023747F2C1228587FF01228587F0212231A
:101B4000741223707F1B1223747F1F1223747F0B68
:101B50001223747FF11228587F011223747F03121D
:101B60002374FF1223747F281223747F2B12237493
:101B70007F0E1223747FF21228587F0B1223747F7A
:101B8000081223747F3B1223747F041223741F12E4
:101B900023747F4C1223747FF31228587F0E122374
:101BA000747F071223747F461223747F04122374F8
:101BB0000F1223747F511223747FF41228587F0868
:101BC0001223747F151223741223747F1F1223743F
:101BD0007F221223747F0F1223747FF51228587FFF
:101BE0000B1223747F131223747F111223747F1F2F
:101BF0001223747F211223747F0F1223747F11121A
:0E1C000028587F78123A777F297E00022858F4
:1018A400D2857F017E00123A77C2857F0A7E0012BC
:1018B4003A77D2857F787E00123A77D2857F787E18
:1018C40000123A77C2857F647E00123A77D2857F10
:1018D400787E00123A7712227A0F1223747F3F1215
:1018E40023747F2C1228587FF01228587F02122369
:1018F400741223707F1B1223747F1F1223747F0BB7
:101904001223747FF11228587F011223747F03126B
:101914002374FF1223747F281223747F2B122374E1
:101924007F0E1223747FF21228587F0B1223747FC8
:10193400081223747F3B1223747F041223741F1232
:1019440023747F4C1223747FF31228587F0E1223C2
:10195400747F071223747F461223747F0412237446
:101964000F1223747F511223747FF41228587F08B6
:101974001223747F151223741223747F1F1223748D
:101984007F221223747F0F1223747FF51228587F4D
:101994000B1223747F131223747F111223747F1F7D
:1019A4001223747F211223747F0F1223747F111268
:1019B40028587F78123A777FE97E001228587F08EA
:0819C4001223747F2902285848
:10336E00D2857F017E00123A77C2857F0A7E0012D7
:10337E003A77D2857F787E00123A777F117E0012DF
:10338E0028587F78123A771227877FD01223747FBE
:10339E00021223747F081223747F0D1223747F127E
:1033AE001223747F2C1223747F431223747F5512C1
:1033BE0023747F531223747F1E1223747F1B1223D8
:1033CE00747F191223747F201223747F22122374A8
:0533DE007F29022858C0
:10318700D2857F017E00123A77C2857F0A7E0012C0
:103197003A77D2857F787E00123A777F117E0012C8
:1031A70028587F78123A771227877FD01223747FA7
:1031B700021223747F081223747F0D1223747F1267
:1031C7001223747F2C1223747F431223747F5512AA
:1031D70023747F531223747F1E1223747F1B1223C1
:1031E700747F191223747F201223747F2212237491
:0F31F7007FE71228587F081223747F2902285877
:10259100D2857F787E00123A77C2857F647E0012F1
:1025A1003A77D2857F787E00123A7712227A0F121B
:1025B10023747F3F1223747F2C1228587FF0122836
:1025C100587F021223741F1223741F1223747F0475
:1025D1001223747F0B1223747F101223747FF11264
:1025E10028587F011223741F1223741223747F1140
:1025F1001223747F201223747F181223747FF21226
:1026010028587F111223747F0B1223747F331223F6
:10261100747F041223741223747F421223747FF394
:102621001228587F191223747F0D1223747F5612BA
:1026310023747F031223741F1223747F6112237486
:102641007FF41228587F0B1223747F161223741FF4
:102651001223747F111223741223747F0F122374B7
:102661007FF51228587F071223747F161223741FD7
:102671001223747F2A1223741223747F0F1223747E
:102681007F111228587F78123A777F297E0012280D
:06269100587F2C022858BE
:10205C00D2857F787E00123A77C2857F647E00122B
:10206C003A77D2857F787E00123A7712227A0F1255
:10207C0023747F3F1223747F2C1228587FF0122870
:10208C00587F021223741F1223741F1223747F04AF
:10209C001223747F0B1223747F101223747FF1129E
:1020AC0028587F011223741F1223741223747F117A
:1020BC001223747F201223747F181223747FF21260
:1020CC0028587F111223747F0B1223747F33122331
:1020DC00747F041223741223747F421223747FF3CF
:1020EC001228587F191223747F0D1223747F5612F5
:1020FC0023747F031223741F1223747F61122374C1
:10210C007FF41228587F0B1223747F161223741F2E
:10211C001223747F111223741223747F0F122374F1
:10212C007FF51228587F071223747F161223741F11
:10213C001223747F2A1223741223747F0F122374B8
:10214C007FE91228587F081223747F111228587FB8
:10215C0078123A777F297E001228587F2C02285853
:1019CC007F117E001228587F78123A777F367E007E
:1019DC00122858E4FF1223747F3A1228587F0512FC
:1019EC0023747FB21228587F0C122374122374FFB5
:1019FC001223747F331223741223747FB712285866
:101A0C007F351223747FBB1228587F281223747FD2
:101A1C00C01228587F2C1223747FC21228587F01C1
:101A2C001223747FC31228587F0B1223747FC412A5
:101A3C0028587F201223747FC61228587F0F122338
:101A4C00747FD01228587FA41223747FA1122374A0
:101A5C007FE01228587FD01223747F011223747FE9
:101A6C00081223747F0F1223747F111223747F2AA0
:101A7C001223747F361223747F551223747F441201
:101A8C0023747F3A1223747F0B1223747F06122364
:101A9C00747F111223747F201228537FD012237469
:101AAC007F021223747F071223747F0A1223740F90
:101ABC001223747F181223747F341223747F431201
:101ACC0023747F4A1223747F2B1223747F1B1223DF
:101ADC00740F1223747F221223747F1F1223747FBE
:041AEC00290228584B
:101776007F117E001228587F78123A777F367E00D6
:10178600122858E4FF1223747F3A1228587F051254
:1017960023747FB21228587F0C122374122374FF0D
:1017A6001223747F331223741223747FB7122858BE
:1017B6007F351223747FBB1228587F281223747F2B
:1017C600C01228587F2C1223747FC21228587F011A
:1017D6001223747FC31228587F0B1223747FC412FE
:1017E60028587F201223747FC61228587F0F122391
:1017F600747FD01228587FA41223747FA1122374F9
:101806007FE01228587FD01223747F011223747F41
:10181600081223747F0F1223747F111223747F2AF8
:101826001223747F361223747F551223747F441259
:1018360023747F3A1223747F0B1223747F061223BC
:10184600747F111223747F201228537FD0122374C1
:101856007F021223747F071223747F0A1223740FE8
:101866001223747F181223747F341223747F431259
:1018760023747F4A1223747F2B1223747F1B122337
:10188600740F1223747F221223747F1F1223747F16
:0E189600E71228587F081223747F2902285871
:10238300D2857F787E00123A77C2857F647E001201
:102393003A77D2857F787E00123A7712227A0F122B
:1023A30023747F3F1223747F2C1228587FF0122846
:1023B300587F021223741223707F1B1223747F1F12
:1023C3001223747F0B1223747FF11228587F01129A
:1023D30023747F03122374FF1223747F2812237440
:1023E3007F2B1223747F0E1223747FF21228587FDF
:1023F3000B1223747F081223747F3B1223747F0410
:102403001223741F1223747F4C1223747FF3122838
:10241300587F0E1223747F071223747F461223748E
:102423007F041223740F1223747F511223747FF4D9
:102433001228587F081223747F15122374122374F1
:102443007F1F1223747F221223747F0F1223747F42
:10245300F51228587F0B1223747F131223747F11F4
:102463001223747F1F1223747F211223747F0F1290
:1024730023747F111228587F78123A777F297E00C0
:082483001228587F2C02285892
:101D2900D2857F787E00123A77C2857F647E001261
:101D39003A77D2857F787E00123A7712227A0F128B
:101D490023747F3F1223747F2C1228587FF01228A6
:101D5900587F021223741223707F1B1223747F1F72
:101D69001223747F0B1223747FF11228587F0112FA
:101D790023747F03122374FF1223747F28122374A0
:101D89007F2B1223747F0E1223747FF21228587F3F
:101D99000B1223747F081223747F3B1223747F0470
:101DA9001223741F1223747F4C1223747FF3122899
:101DB900587F0E1223747F071223747F46122374EF
:101DC9007F041223740F1223747F511223747FF43A
:101DD9001228587F081223747F1512237412237452
:101DE9007F1F1223747F221223747F0F1223747FA3
:101DF900F51228587F0B1223747F131223747F1155
:101E09001223747F1F1223747F211223747F0F12F0
:101E190023747FE91228587F081223747F1112282E
:101E2900587F78123A777F297E001228587F2C0232
:021E3900285827
:083BDC005450205445535400DD
:103A4D00C294C295E49002D0F0EF20E704C2B28098
:103A5D0002D2B2D295EF25E0FFC2959002D0E004DC
:053A6D00F0E0B408E4E4
:013A72002231
:1033E3009002CC120F3200000000C294D2B3E490DA
:1033F30002CBF09002CBE0FFC3940C5049C295304E
:10340300B33AC3740B9FFF74017E00A807088005BD
:10341300C333CE33CED8F9FFEE3395E0FDFC9002F3
:10342300CCE0F8A3E0F9A3E0FAA3E04FFFEA4EFEF5
:10343300E94DFDE84CFC9002CC120F26D295900288
:10344300CBE004F080ADD2949002CCA3A3E0FEA322
:02345300E0FF98
:013455002254
:021C0E00AB0722
:101C1000E490029AF0A3F0A3F0D2B590029AE0C348
:101C2000940B502C20B529C294EB04FF123A4D12AC
:101C300033E390029AE025E0249DF582E43402F536
:101C400083EEF0A3EFF090029AE004F0D29480CB00
:101C500090029AE07003021D25E4A3F090029AE03E
:101C6000F9A3E0C3994003021D11E4A3F090029B85
:101C7000E0FF90029AE0C39FFF90029CE0C39F4068
:101C800003021D08E0FF25E0249FF582E43402F5FD
:101C900083E0FCA3E0FDEF25E0249DF582E434021F
:101CA000F583E0FEA3E0D39DEE9C405390029CE0C0
:101CB00025E0249DF582E43402F583E0FCA3E0FDF9
:101CC000900298ECF0A3EDF0EF25E0249FF582E47C
:101CD0003402F583E0FEA3E0FF90029CE0FB25E0E8
:101CE000249DF582E43402F583EEF0A3EFF0EB25BA
:101CF000E0249FF582E43402F583ECF0A3EDF0904C
:101D0000029CE004F0021C6D90029BE004F0021CB7
:101D10005CE9C31325E0249DF582E43402F583E0F9
:081D2000FEA3E0FF22E4FEFF38
:011D28002298
:1011C3009002B3120F32000000009002B7120F32E8
:1011D300000000009002BB120F32000000009002DA
:1011E300BF120F32000000009002C3120F32000042
:1011F30000009002C7120F3200000000E4FFFE124D
:1012030000037FB57EAD1232847BFF7A3B79DCE449
:10121300F513F514F515F51674FFF517F518E4FD38
:10122300FC122EAFD2B530B5051206A780F820B652
:10123300030213737F327E00123A7730B503021331
:10124300697FD0121C0EE4FCFD9002BB120F2690A6
:1012530002BBE0FCA3E0FDA3E0FEA3E0244DFFEE10
:1012630034FFFEED34FFFDEC34FFFCE47BF0FAF9D0
:10127300F8120DB2E47B5B7A06F9F8120E3D900288
:10128300B3120F267F90121C0EE4FCFD9002BF12D6
:101293000F269002BFE0FCA3E0FDA3E0FEA3E02441
:1012A3007FFFEE34FFFEED34FFFDEC34FFFCE47B07
:1012B300407A01F9F8120DB2E47B187A07F9F812B3
:1012C3000E3D9002B7120F267F0F7E00123A773041
:1012D300B50302123EE4FFFEFDFC9002B3E0F8A367
:1012E300E0F9A3E0FAA3E0FBC3120ECF500302120E
:1012F3003EE47FF0FEFDFC9002B3E0F8A3A3A3E07D
:10130300120ECF400302123EE4FFFEFDFC9002B733
:10131300E0F8A3E0F9A3E0FAA3E0FBC3120ECF5079
:101323000302123EE47F407E01FDFC9002B7E0F829
:10133300A3A3A3E0120ECF400302123E9002B3A375
:10134300A3E0FEA3E0FFC374F09FFFE49EFEC0068C
:10135300A3A3A3E0FEA3E0FDAC06D0067B007AF8CE
:1013630012004602123E7F327E00123A7702123199
:10137300E4FFFE1200037FB57EAD1232847BFF7A59
:101383003B79DCE4F513F514F515F51674FFF51741
:0B139300F518E4FDFC122EAF02123131
:103931001201100100000040C4100000000001024B
:1039410003010902200001010080FA0904000002BC
:10395100FF00000007050202400000070582024047
:0A3961000000040309040100000047
:10163F00900200EEF0A3EFF0900204EBF0A3EAF0BB
:10164F00A3E9F0E4900791F0900791E0FF90393112
:10165F0093FE74402FF582E43407F583EEF0900784
:10166F0091E004F0E0B412E0E4900791F09007915C
:10167F00E0FF90394393FE74522FF582E43407F55F
:10168F0083EEF0900791E004F0E0B420E0900200C8
:10169F00E0FEA3E0900748F0EEA3F0A3EDF0ECA37B
:1016AF00F090077274FFF0A37439F0A37463F09095
:1016BF000204E0F9A3E0FAA3E0900775C9F0A3EAEA
:1016CF00F0A3E9F0900207E0F9A3E0FAA3E0900796
:1016DF0078C9F0A3EAF0A3E9F090020AE0F9A3E0D9
:1016EF00FAA3E090077BC9F0A3EAF0A3E9F0900218
:1016FF000DE0FFC394FA500590075AEFF090020ED9
:10170F00E0900759F090020FE0FEA3E090074CF035
:10171F00EEA3F0E59620E7FB759601759708E59621
:10172F0020E7FB75960775970FE59620E7FB7596F3
:10173F000975970EE59620E7FB75960B759707755C
:10174F00D7E0123BC5E4900793F0900792F0900713
:10175F0094F0900786F043E602D2AFE59620E7FBC0
:07176F007596017597012238
:1039FF009007867402F0E59620E7FB7596017597A0
:103A0F0001E490078EF0A37403F0A3F0E490079302
:073A1F00F090079204F02271
:100F9000E59620E7FB75960EE4F597E59620E7FBCE
:100FA000759691E59620E7FB90079EE597F0E0FFA8
:100FB00030E210E59620E7FB759611E4F59790076F
:100FC0008EF022EF30E410E59620E7FB7596117560
:100FD0009780E490078EF090078EE060030210C1C6
:100FE00090079EE020E0030210C17596204396C052
:100FF000E4900791F0E59620E7FB900791E0247ECE
:10100000F582E43407F583E597F0900791E004F06A
:10101000E0B407E1E59620E7FBE4F596900791E060
:10102000247EF582E43407F583E597F0900781E0AC
:10103000FE900780E07C002400FFEC3E900795F0D6
:10104000A3EFF0900785E0FE900784E02400FFEC1A
:101050003E900797F0A3EFF090077FE0B40C0050AC
:101060005D901068F828287302108C02109102100D
:101070009602109B0210BE0210A00210A50210BE24
:101080000210AA0210AF0210B40210B91234568036
:1010900030123714802B122867802612376C80217B
:1010A000123ADB801C122B6480171238A4801212B3
:1010B00036BA800D123A268008123B608003123A3D
:1010C000FB90078EE0640160030211C290079E74DA
:1010D00002F0C390078DE0944090078CE0940040AC
:1010E00061E59620E7FB759620E4900791F0900764
:1010F00091E0FFC394405022900787E0FBA3E0FA01
:10110000A3E0F98F82758300120D5DF597E59620B7
:10111000E7FB900791E004F080D4900788E475F035
:1011200040120D9C90078DE024C0F090078CE034B5
:10113000FFF090078BE02440F090078AE03400F045
:101140008052E59620E7FB759620E4900791F09099
:101150000791E0FFD390078DE09F90078CE094000B
:101160004026900787E0FBA3E0FAA3E0F9900791FF
:10117000E0F582758300120D5DF597E59620E7FB9B
:10118000900791E004F080C790079EE04408F0E4E7
:1011900090078EF0900797E0FEA3E0FF90078AE0AB
:1011A000B50611A3E0B5070C90079EE04408F0E4F3
:1011B00090078EF0E59620E7FB75961190079EE06C
:0311C000F597227E
:103AFB00E59620E7FB75960EE4F597E59620E7FB38
:0D3B0B0075961175972090078E7404F022B6
:1034560090077EE0247F600714600624027048808F
:103466002D90078FE0B40309900782E0B402028032
:103476000E900790E0B40316900782E0B4820F9096
:10348600078774FFF0A37439F0A37467800D900763
:103496008774FFF0A37439F0A37469F090078CE485
:1034A600F0A37402F08003123AFB90078EE06404E6
:1034B6006010123B6090078E7401F0E490078AF06A
:0334C600A3F0224E
:10371400900780E07041900782E0B4021DE5962096
:10372400E7FB75960E759702E59620E7FB759614F0
:10373400759780E490078FF08020E59620E7FB756D
:10374400960E759702E59620E7FB759611759740DE
:10375400E4900790F08003123AFBE59620E7FB75AE
:08376400960EE4F597023B60AC
:10286700900796E020E0030228FD900794E030E00F
:102877000854FEF04402F08007900794E054FDF0FE
:10288700E59620E7FB75960E759702E59620E7FB20
:10289700759614759710E59620E7FB759611759751
:1028A70008E59620E7FB759694E59620E7FB9007E9
:1028B7009DE597F0E020E4E9E59620E7FB7596149F
:1028C700759710E59620E7FB759691E59620E7FB4F
:1028D70090079DE597F0E020E3E9E59620E7FB7593
:1028E70096117597089007927408F0900794E0FF87
:1028F70030E1034401F0900795E0FCA3E0FD30E1EF
:102907000D9007867406F0900792E04410F0ED30C2
:10291700E20D9007867404F0900792E04420F0E5FA
:0D2927009620E7FB75960EE4F597023B60E5
:10376C00900780E07040900782E0B4021BE5962041
:10377C00E7FB75960E759702E59620E7FB75961498
:10378C0075972090078F8019E59620E7FB75960EAC
:10379C00759702E59620E7FB7596117597109007C3
:1037AC00907403F08003123AFBE59620E7FB7596C4
:0737BC000EE4F597023B60EB
:103ADB00E59620E7FBE4F596900780E0FFF597EF7E
:103AEB0090078660057403F080037402F0023B605C
:102B6400900781E024FE601B14603B24027069908E
:102B740007877401F0A37407F0A37440F090074032
:102B8400E0804A9007877401F0A37407F0A374529D
:102B9400F0900755E0FE900754E07C002400FFEC21
:102BA4003E90078C802C900780E075F003A424727B
:102BB400F582E43407F583E0FBA3E0FAA3E0F9909F
:102BC4000787EBF0A3EAF0A3E9F0120D44FF9007A6
:102BD4008CE4F0A3EFF08003123AFB90078CE0FE44
:102BE400A3E0FF900797E0FCA3E0FDC39FEC9E5099
:102BF4000890078CECF0A3EDF090078EE06404607D
:102C040010123B6090078E7401F0E490078AF0A3E1
:022C1400F022AC
:1038A400900786E0FFB40414A374FFF0A37439F006
:1038B400A37467F090078CE4F0A304F0EFB403164C
:1038C40090078774FFF0A37439F0A37469F090072C
:1038D4008CE4F0A304F0123B6090078E7401F0E4D2
:0738E40090078AF0A3F02217
:1036BA00900780E0D394004042900792E04440F0A3
:1036CA009007867404F0E490078FF0A3F0E5962043
:1036DA00E7FB75960E759702E59620E7FB7596123D
:1036EA00759784E59620E7FB759615759780E5969C
:1036FA0020E7FB75960EE4F597800C900786740315
:0A370A00F090078FF0A3F0023B607F
:103A260090078774FFF0A37439F0A37469F09007C8
:103A36008CE4F0A304F0123B6090078E7401F0E46E
:073A460090078AF0A3F022B3
:103B600090078EE06404600BE59620E7FB759611E4
:043B700075974022E3
:0300430002139E07
:10139E00C0E0C0F0C083C082C0D075D000C000C015
:1013AE0001C002C003C004C005C006C0079007A15B
:1013BE00E596F0E59620E7FB75968EE59620E7FB21
:1013CE009007A2E597F0E59620E7FB759686E596E1
:1013DE0020E7FB900799E597F0E030E30BE59620C8
:1013EE00E7FB75960B759707900799E030E20312AD
:1013FE0039FF900799E030E014900786E0FF64040F
:10140E006004EFB40607900792E04480F0E5962062
:10141E00E7FB759682E59620E7FB900799E597F036
:10142E00E030E003120F90900799E030E22AE59643
:10143E0020E7FB75960E759702E59620E7FB7596ED
:10144E0091E59620E7FB90079AE597F0E05403703C
:10145E0007900792E04402F0E59620E7FB7596842C
:10146E00E59620E7FB900799E597F0E030E229E555
:10147E009620E7FB75960E759702E59620E7FB75AD
:10148E009694E59620E7FB90079AE597F0E030E01A
:10149E0007900792E04404F0E59620E7FB75960E60
:1014AE009007A2E0F597E59620E7FB9007A1E59659
:1014BE00F0E59620E7FB900794E030E00990079264
:1014CE00E06003123AB9D007D006D005D004D0039D
:1014DE00D002D001D000D0D0D082D083D0F0D0E0D6
:0114EE0032CB
:10396B00E5B964E0602E53A90FC0A943B280E5A965
:10397B005407D394014003E4F5A9E4F5B943B980A6
:10398B00E4D5E0FD43B9C0E5B930E5FBD0E0B402C6
:08399B000343A90253A90F2206
:1039D40053D7BF43C910E5A95402900791F043B2ED
:1039E4008075A910E4F5B943B2200012396B900731
:0B39F40091E042A953C9EF43D74022E5
:0E3BAA00900792E0FFE4F022900792E0FF22E5
:102C1600900786E0B40606EDD3944040037F002279
:102C2600E59620E7FB75960E759702E59620E7FB7D
:102C3600759694E59620E7FB90079CE597F0E020D3
:102C4600E003022CC2E59620E7FB759696E59620F2
:102C5600E7FB900793E597F0E0FFEDC39F5006AEC4
:102C660005AF068000900793EFF053E6FDE596204A
:102C7600E7FB7596E2900793E06025FEEB60063071
:102C8600E70F7F0022E59620E7FBA79709DEF6808F
:102C96000F89828A83E59620E7FBE597F0A3DEF5A8
:102CA600E59620E7FBE4F596E59620E7FB75961496
:0F2CB600E4F59743E602900793E0FF227F0022A8
:101E3B00900786E0B4060DED4C6009D3ED9400ECF1
:101E4B0094104004E4FEFF2253E6FDE490079FF05C
:101E5B00A3F090079BF089828A83C083C08290078E
:101E6B009BE030E003021F3CE59620E7FB75960EE6
:101E7B00759702E59620E7FB759691E59620E7FBB3
:101E8B0090079BE597F0E030E020E59620E7FB75A7
:101E9B00960EE4F597E59620E7FB759691E596206F
:101EAB00E7FB90079BE597F080B4C3ED9440EC946F
:101EBB00009007A0E0401B2440F090079FE0340007
:101ECB00F074C02DFD74FF3CFCE490079BF0784050
:101EDB0080132DF090079FE03CF090079B7401F06E
:101EEB00A805E4FCFDE59620E7FB759622D082D091
:101EFB0083E8602BEB601130E71AE59620E7FBE4F3
:101F0B0093F597A3D8F48017E59620E7FB879709FD
:101F1B00D8F6800BE59620E7FBE0F597A3D8F5C044
:101F2B0083C082E59620E7FB759611759701021E1B
:101F3B0069D082D08343E60290079FE0FEA3E0FFC7
:011F4B002273
:103B3100900794E04401F0900792E0600BE5962035
:093B4100E7FB75960B75970F2246
:0C3BC500E59620E7FB75960F75978922A6
:103AB900D007D007D007D006D005D004D003D00254
:103AC900D001D000D0D0D082D083D0F0D0E0020095
:023AD9008B223E
:0300000002307C4F
:0C307C00787FE4F6D8FD7581530230C364
:100C4E00E709F608DFFA8046E709F208DFFA803E88
:100C5E0088828C83E709F0A3DFFA8032E309F60875
:100C6E00DFFA8078E309F208DFFA807088828C83DD
:100C7E00E309F0A3DFFA806489828A83E0A3F60891
:100C8E00DFFA805889828A83E0A3F208DFFA804C6B
:100C9E0080D280FA80C680D4806980F28033801042
:100CAE0080A680EA809A80A880DA80E280CA8033AB
:100CBE0089828A83ECFAE493A3C8C582C8CCC58323
:100CCE00CCF0A3C8C582C8CCC583CCDFE9DEE780F3
:100CDE000D89828A83E493A3F608DFF9ECFAA9F072
:100CEE00EDFB2289828A83ECFAE0A3C8C582C8CCC8
:100CFE00C583CCF0A3C8C582C8CCC583CCDFEADEE1
:100D0E00E880DB89828A83E493A3F208DFF980CC42
:100D1E0088F0EF60010E4E60C388F0ED2402B4043B
:100D2E000050B9F582EB2402B4040050AF232345E2
:060D3E008223900C9E735D
:100D4400BB010689828A83E0225002E722BBFE02AD
:090D5400E32289828A83E49322E0
:100D5D00BB010CE58229F582E5833AF583E022504B
:100D6D0006E92582F8E622BBFE06E92582F8E22295
:0D0D7D00E58229F582E5833AF583E49322AF
:100D8A00EF8DF0A4A8F0CF8CF0A428CE8DF0A42E7D
:020D9A00FE2237
:100D9C00C5F0F8A3E028F0C5F0F8E58215827002E2
:060DAC001583E038F0227F
:100DB200E88FF0A4CC8BF0A42CFCE98EF0A42CFCE0
:100DC2008AF0EDA42CFCEA8EF0A4CDA8F08BF0A45E
:100DD2002DCC3825F0FDE98FF0A42CCD35F0FCEBBD
:100DE2008EF0A4FEA9F0EB8FF0A4CFC5F02ECD3982
:0F0DF200FEE43CFCEAA42DCE35F0FDE43CFC22EF
:100E010075F008758200EF2FFFEE33FECD33CDCCA8
:100E110033CCC58233C5829BED9AEC99E58298402B
:100E21000CF582EE9BFEED9AFDEC99FC0FD5F0D608
:100E3100E4CEFBE4CDFAE4CCF9A88222B800C1B932
:100E41000059BA002DEC8BF084CFCECDFCE5F0CB70
:100E5100F97818EF2FFFEE33FEED33FDEC33FCEBA9
:100E610033FB10D703994004EB99FB0FD8E5E4F964
:100E7100FA227818EF2FFFEE33FEED33FDEC33FC51
:100E8100C933C910D7059BE99A4007EC9BFCE99A45
:100E9100F90FD8E0E4C9FAE4CCFB2275F010EF2F8A
:100EA100FFEE33FEED33FDCC33CCC833C810D7078A
:100EB1009BEC9AE899400AED9BFDEC9AFCE899F8C5
:0E0EC1000FD5F0DAE4CDFBE4CCFAE4C8F92258
:100ECF00EB9FF5F0EA9E42F0E99D42F0E89C45F079
:010EDF0022F0
:100EE000E8600FECC313FCED13FDEE13FEEF13FFF0
:030EF000D8F12214
:100EF300E8600FEFC333FFEE33FEED33FDEC33FC5D
:030F0300D8F12200
:100F06007401FF3395E0FEFDFC080808E6CF2FF6D6
:100F160018E6CE3EF618E6CD3DF618E6CC3CF622AF
:0C0F2600ECF0A3EDF0A3EEF0A3EFF0223E
:100F3200A8828583F0D083D082120F49120F491202
:100F42000F49120F49E473E493A3C583C5F0C58327
:100F5200C8C582C8F0A3C583C5F0C583C8C582C809
:010F6200226C
:100F6300D083D082F8E4937012740193700DA3A31D
:100F730093F8740193F5828883E473740293B5F054
:0D0F8300067403936860E9A3A3A3A380D8BC
:10308800022697E493A3F8E493A34003F68001F2A1
:1030980008DFF48029E493A3F85407240CC8C33349
:1030A800C4540F4420C8834004F456800146F6DF18
:1030B800E4800B01020408102040809039A3E47ECC
:1030C800019360BCA3FF543F30E509541FFEE4930D
:1030D800A360010ECF54C025E060A840B8E493A3D4
:1030E800FAE493A3F8E493A3C8C582C8CAC583CAFF
:1030F800F0A3C8C582C8CAC583CADFE9DEE780BEB7
:0139D30000F3
:00000001FF
